:020000040000FA
:060000000A128A110C280F
:10000800FE00030EF4000A08F5000A128A112229DC
:100018000A128A110F280A128A119D220A128A11BD
:10002800AC000A128A119C220A128A11F900AB014B
:10003800F601F70183010A128A1122280A128A118D
:1000480051220A128A110A128A117D220A128A1171
:1000580027300A128A11BF200A128A118312031349
:10006800881C372838283D281430AA002A08AC00F4
:1000780041280A30AA002A08AC0008194428482850
:100088008312031388154B28831203138811081A47
:100098004E284F2880280030081A01302B060319F3
:1000A8005628572880280A128A1162220A128A11B1
:1000B80083120313A601A60A01300A128A11AB2182
:1000C8000A128A110D300A128A1182210A128A1123
:1000D80083120313A601A60A02300A128A11AB2161
:1000E8000A128A1101300A128A1182210A128A110F
:1000F80083120313AB01B1280030081A01302B0614
:10010800031987288828B1280A128A1162220A123C
:100118008A1183120313A601A60A01300A128A1152
:10012800AB210A128A1119300A128A1182210A1285
:100138008A1183120313A601A60A02300A128A1131
:10014800AB210A128A1121300A128A1182210A125D
:100158008A1183120313AB01AB0A0819B428B82813
:10016800831203138815BB288312031388113228BE
:100178000A128A110C2883120313A9002908A60061
:100188002608F80000300A128A110A220A128A1177
:10019800213083120313A7007530A600A60BD228BE
:1001A800A70BD228D72802300A128A11EC210A128A
:1001B8008A11213083120313A7007530A600A60BFD
:1001C800E328A70BE328E82828300A128A11EC2133
:1001D8000A128A11213083120313A7007530A60072
:1001E800A60BF428A70BF428F9280C300A128A1158
:1001F800EC210A128A11023083120313A800453039
:10020800A700A930A600A60B0729A70B0729A80B4A
:10021800072901300A128A11EC210A128A110230C8
:1002280083120313A8004530A700A930A600A60B27
:100238001B29A70B1B29A80B1B2908000B1D252907
:1002480026294E2905308312031381000B11013032
:10025800F0007008F70777082C06031D34293529A4
:100268003729013088060030F1002C08C83CF0001E
:10027800031CF1037708F200F30171087306031DEC
:10028800472970087206031D4A294B294E29013057
:100298008806F70175088A00740E8300FE0E7E0E2C
:1002A800090001308A000408840A820700343034C7
:1002B800203420342E343934203420342E34313450
:1002C80030342034003453345034313420345334EF
:1002D80050343234203453345034333400344E34B0
:1002E80061346D3420344C346534653400346B34F7
:1002F80061346B3461346B3461340034831203131A
:10030800A800A601A7019D292608280784000A122B
:100318008A1155210A128A110A128A11CD210A124C
:100328008A11013083120313A6070318A70A0030A5
:10033800A7072608280784000A128A1155210A12DD
:100348008A11003A031DA929AA29882908008312BD
:100358000313A900BF292608BF3E0A128A11EC21FF
:100368000A128A11CC2926087F3E0A128A11EC212A
:100378000A128A11CC292908A700A8012808003ADE
:100388000319C729B7292708023A0319AF29B7293A
:10039800080083120313A500F601F60A2508F039B0
:1003A8000A128A1127220A128A11831203132508B6
:1003B800A40003300310A40DFF3E031DDE29031023
:1003C800240DF0390A128A1127220A128A1108000C
:1003D80083120313A500F6012508F0390A128A11C1
:1003E80027220A128A11831203132508A400033056
:1003F8000310A40DFF3E031DFC290310240DF03942
:100408000A128A1127220A128A110800831203137A
:10041800A1000A128A1193220A128A1178080A1274
:100428008A113F220A128A118312031321080838FD
:100438000A128A113F220A128A110A128A118A2282
:100448000A128A11080083120313A3007608A20077
:100458002208A304230804380A128A110A220A125D
:100468008A11831203132308FB390A128A110A22FC
:100478000A128A11080083120313A0000A128A11B3
:1004880070220A128A1183120313200893008C1D0C
:100498004E2A4F2A4B2A8C11080083160313811108
:1004A80001118110011081128B178B160B11163058
:1004B80088000130831203138800080001300A12F3
:1004C8008A11EC210A128A11413083120313A60003
:1004D800A60B6C2A6F2A0800831603131419752AB1
:1004E800762A702A11081F39031D7B2A7C2A702A54
:1004F8000800283083120313940083160313910114
:100508009401313093008715071608000A128A11E2
:1005180070220A128A1183160313111508000A1291
:100528008A1170220A128A11831603131114080003
:04053800083402344D
:02400E00723FFF
:00000001FF
