:020000040000FA
:060000000A128A11122809
:10000800FE00030E83120313A4000408A5000A08C7
:10001800A6007F08A7000A128A1131290A128A113C
:10002800152883134C30FD000630FE00D230FF0047
:10003800453084000A128A1143260A128A110A12CC
:100048008A11DF260A128A11FD00BD01BE01BF0117
:10005800C001C101C201C301C401FA01FB01FC01D5
:1000680083010A128A1138280A128A119C260A1258
:100078008A114E300A128A1108220A128A11831232
:100088000313AE01AE0A01300A128A111B250A12A7
:100098008A1101300A128A11F2240A128A11831273
:1000A8000313AE01AE0A02300A128A111B250A1286
:1000B8008A1112300A128A11F2240A128A110A12BB
:1000C8008A1173260A128A110A128A11B5260A128F
:1000D8008A110A128A1181260A128A110A128A11B1
:1000E800C5240A128A110A128A11D9260A128A11FB
:1000F8000A128A11D7250A128A11831603130613C6
:100108008612831203130617861683160313051423
:100118008610061183120313861083160313061420
:1001280000300A128A1164260A128A1183120313F4
:10013800BB003B08C10001300A128A1164260A126A
:100148008A1183120313BB003B08C00002300A1255
:100158008A1164260A128A1183120313BB003B0812
:10016800BF00831203134A03031DBB28BC280429BC
:100178000A128A1173260A128A1183120313AE0116
:10018800AE0A01300A128A111B250A128A1123307D
:100198000A128A11F2240A128A11023083120313F6
:1001A800BB003B08B2000230BC003C08B300410869
:1001B8000A128A11B5220A128A1102308312031315
:1001C800BB003B08B2000730BC003C08B300400845
:1001D8000A128A11B5220A128A11023083120313F5
:1001E800BB003B08B2000C30BC003C08B3003F0821
:1001F8000A128A11B5220A128A1183120313CA013C
:100208004303031D082909290E290830BB003B08B0
:10021800FD0012290E30BB003B08FD0049181529C6
:1002280019298312031306151C29831203130611B7
:1002380000300A128A11E2230A128A118312031368
:100248002908AF002808AE000A128A110D260A12E2
:100258008A11B5280A128A1112280B1D342935294A
:100268006B29053081000B110130A0002008FB0725
:100278007B087D06031D412942294C297C08031D62
:10028800462947294A29403086064C2920308606C7
:100298000030A1007D08C83CA000031CA1037B0816
:1002A800A200A30121082306031D5C2920082206B9
:1002B800031D5F2960296B297C08031D64296529B2
:1002C8006829403086066A2920308606FB018B1C87
:1002D8006E296F298229C3010030F600F7000A123F
:1002E8008A1127260A128A1183120313C90133308F
:1002F8000A128A119A250A128A118B108312031383
:100308008C1E87298829FD291A08A0002008FA00D0
:1003180061307A06031D91299229AC29410A031DEF
:10032800962997299829C1010130A0002008C10702
:100338004108A0002008F00000300A128A11F225B6
:100348000A128A11FC0183120313C301C30AE629A6
:1003580062307A06031DB129B229C929400A031D52
:10036800B629B729B829C0010130A0002008C00764
:100378004008A0002008F00001300A128A11F22576
:100388000A128A11FC01FC0AA72963307A06031DA8
:10039800CE29CF29E6293F0A031DD329D429D529F7
:1003A800BF010130A0002008BF073F08A0002008B7
:1003B800F00002300A128A11F2250A128A118312F9
:1003C8000313C301C901C90A00300A128A1137246C
:1003D8000A128A117108F7007008F6000A128A11C9
:1003E80027260A128A1183120313CA01CA0AFA01BC
:1003F8008C122708FF0026088A0025088400240E8E
:100408008300FE0E7E0E090083120313B10031082B
:10041800AE002E08CC0000300A128A117B250A1281
:100428008A11C33083120313AF00CC30AE00AE0B79
:100438001B2AAF0B1B2A000003300A128A11B925A8
:100448000A128A11213083120313AF007530AE00EF
:10045800AE0B2C2AAF0B2C2A312A03300A128A1130
:10046800B9250A128A11213083120313AF0075309F
:10047800AE00AE0B3D2AAF0B3D2A422A03300A12CA
:100488008A11B9250A128A11213083120313AF0089
:100498007530AE00AE0B4E2AAF0B4E2A532A0230EF
:1004A8000A128A11B9250A128A11213083120313FC
:1004B800AF007530AE00AE0B5F2AAF0B5F2A642A1F
:1004C80028300A128A11B9250A128A1102308312B9
:1004D8000313B0004530AF00A930AE00AE0B722A4E
:1004E800AF0B722AB00B722A0C300A128A11B92586
:1004F8000A128A11023083120313B0004530AF008C
:10050800A930AE00AE0B862AAF0B862AB00B862A1E
:1005180001300A128A11B9250A128A11023083128F
:100528000313B0004530AF00A930AE00AE0B9A2AD5
:10053800AF0B9A2AB00B9A2A06300A128A11B925EB
:100548000A128A11023083120313B0004530AF003B
:10055800A930AE00AE0BAE2AAF0BAE2AB00BAE2A56
:10056800080083120313BA003308023EB4003408AB
:10057800B9000230B4003408B7000A30A8000030CF
:10058800A9003A08B400B5013408AA003508AB0040
:100598000A128A1187230A128A1183120313280860
:1005A800303EB6003608B8003908B4003408AE004A
:1005B80032080A128A111B250A128A1183120313A0
:1005C80038080A128A113D250A128A11013083124D
:1005D8000313B9020A30A8000030A9003A08B40091
:1005E800B5013408AA003508AB000A128A111E2387
:1005F8000A128A11831203132808B6003608BA00B3
:100608003A08031D082B092B0A2B172B0130B702B8
:10061800C12A20300A128A113D250A128A11013096
:1006280083120313B9023308390203181C2B1D2B3C
:100638000D2B080083120313AE01A91F242B252BB1
:100648002C2BA809A909A80A0319A90AAE01AE0A00
:10065800AB1F2F2B302B392BAA09AB09AA0A031978
:10066800AB0A0130AC002C08AE06AF01B001280877
:1006780029040319402B412B782BAD01AD0A4F2BD0
:1006880001300310A80DA90DFF3E031D452B0130B5
:10069800AC002C08AD07A91F522B532B442B01305B
:1006A8000310AF0DB00DFF3E031D542B29082B027C
:1006B800031D602B28082A02031C632B642B6B2B59
:1006C8002808AA022908031CAB03AB022F14013027
:1006D8000310A90CA80CFF3E031D6C2B0130AD02C2
:1006E800031D772B782B532B2E0803197C2B7D2B7E
:1006F800822BAF09B009AF0A0319B00A3008A90064
:100708002F08A800080083120313AE01AB1F8D2B1E
:100718008E2B952BAA09AB09AA0A0319AB0AAE01BD
:10072800AE0AA91F982B992B9E2BA809A909A80ADC
:100738000319A90A280829040319A32BA42BD32BCE
:10074800AD01AD0AB22B01300310A80DA90DFF3E73
:10075800031DA82B0130AC002C08AD07A91FB52B31
:10076800B62BA72B29082B02031DBC2B28082A020D
:10077800031CBF2BC02BC62B2808AA022908031C60
:10078800AB03AB0201300310A90CA80CFF3E031DFC
:10079800C72B0130AD02031DD22BD32BB62B2E084D
:1007A8000319D72BD82BDD2BAA09AB09AA0A0319E1
:1007B800AB0A2B08A9002A08A80008008312031313
:1007C800AD0008302D02031CEA2BEB2BEE2BA80101
:1007D800A901362C2D18F12BF52B831203139F1525
:1007E800F82B831203139F112D08AA000130031060
:1007F800AA0CFF3E031DFB2B2A18032C072C83127F
:1008080003131F160A2C831203131F122D08AA00A4
:1008180002300310AA0CFF3E031D0D2C2A18152CBC
:10082800192C831203139F161C2C831203139F1277
:10083800283083120313AA00AA0B202C232C83121E
:1008480003131F151F19292C2A2C262C1E08AC004F
:10085800831603131E0883120313AB002C08A90088
:100868002B08A8000800F50008307502031C3D2C71
:100878003E2C412CF001F101852C7518442C482C94
:10088800831203139F154B2C831203139F117508B2
:10089800F20001300310F20CFF3E031D4E2C7218BB
:1008A800562C5A2C831203131F165D2C8312031324
:1008B8001F127508F20002300310F20CFF3E031DF0
:1008C800602C7218682C6C2C831203139F166F2CE3
:1008D800831203139F122930F200F20B712C0000CF
:1008E800831203131F151F197A2C7B2C772C1E08D3
:1008F800F400831603131E08F3007408F10073084C
:10090800F000080004308A000408840A82070034D2
:100918002034203420342034563449342034583498
:10092800553420344C345934203420342034203485
:100938000034203420342034543441344E342034AC
:100948004D344134493420344E3441344D3420340C
:100958002034003420344434463453342034203492
:100968004934323443342034203443345234433409
:100978002034003463346834653463346B340A34A7
:1009880000348312031317159715831603130711E1
:10099800DB2C8312031312109210EB2C8312031317
:1009A80012149210EB2C831203139214EB2C0030C8
:1009B800003A0319E02CEB2C0130013A0319CD2C35
:1009C800053A0319D22C143A0319D72CEB2C8312AD
:1009D8001215F030831603139200080083120313D4
:1009E800B000AE01AF010D2D2E08300784000A12A9
:1009F8008A1186240A128A110A128A113D250A12BE
:100A08008A11013083120313AE070318AF0A0030AE
:100A1800AF072E08300784000A128A1186240A12AA
:100A28008A11003A031D192D1A2DF82C080083127B
:100A38000313B1002F2D2E08BF3E0A128A11B925C3
:100A48000A128A113C2D2E087F3E0A128A11B925F6
:100A58000A128A113C2D3108AF00B0013008003A63
:100A68000319372D272D2F08023A03191F2D272D7B
:100A7800080083120313AD00C401C40A2D08F0391D
:100A88000A128A115C250A128A11831203132D088F
:100A9800AC0003300310AC0DFF3E031D4E2D0310B8
:100AA8002C0DF0390A128A115C250A128A110800E5
:100AB80083120313AB004408AA002A08AB042B08CE
:100AC80004380A128A117B250A128A118312031329
:100AD8002B08FB390A128A117B250A128A11523017
:100AE80083120313AA00AA0B772D000008008312B3
:100AF8000313A9000A128A11C9260A128A1183123D
:100B080003134C080A128A1152260A128A118312F8
:100B1800031329084B040A128A1152260A128A1151
:100B28000A128A11C0260A128A110800F200AC2D96
:100B3800720884000A128A1186240A128A110A127B
:100B48008A11A9260A128A110130F1007108F207E8
:100B5800720884000A128A1186240A128A11003A3D
:100B6800031DB72DB82D9C2D080083120313AD006B
:100B7800C4012D08F0390A128A115C250A128A115B
:100B8800831203132D08AC0003300310AC0DFF3E95
:100B9800031DC92D03102C0DF0390A128A115C258A
:100BA8000A128A1108008316031318158130990058
:100BB800181283120313981783160313071787173E
:100BC8009816831203131816831603138C160B1723
:100BD8008B1718138312031318130800F1008316D8
:100BE80003178C18F82DF92DF32D710883120317AC
:100BF8008D0070088C00831603178C130C158B134B
:100C080055308D00AA308D008C148B170C118C1068
:100C18000800831203132E18122E162E83120313A4
:100C28001716192E83120313171297122F08B100E3
:100C38002E08B0000310B10CB00C0310B10CB00CAE
:100C480030089500080076182A2E2E2E83120313DA
:100C58001716312E83120313171297127708F9000B
:100C68007608F8000310F90CF80C0310F90CF80CCE
:100C78007808950008007E088A007F0882000A121A
:100C88008A113F260A128A118000840A04087D0608
:100C980003190034FF0A0319FE0A432E83120313B3
:100CA800A8000A128A118F260A128A1183120313C6
:100CB800280893008C1D612E622E5E2E8C11080070
:100CC80083120313A8002808831203178D008316C4
:100CD80003178C130C14831203170C080800013037
:100CE8000A128A11B9250A128A1141308312031394
:100CF800AE00AE0B7D2E802E0800831203131F1743
:100D08009F131F14831603139F171F171F109F107D
:100D18001F119F110800831603131419942E952E82
:100D28008F2E11081F39031D9A2E9B2E8F2E080017
:100D3800283083120313940083160313910194013E
:100D480031309300871507160800F0008316031347
:100D5800981CAF2EB02EAA2E700883120313990088
:100D680008008316031381110111811001108112EB
:100D78008B178B160B1108000A128A118F260A127C
:100D88008A1183160313111508000A128A118F2677
:100D98000A128A11831603131114080080342534AB
:100DA8000234003401340134083483160313011368
:080DB8000B168B170800023432
:02400E003A3F37
:00000001FF
